S01F00005061727465204D6963726F20646520506F74656E6369612E73726563B3
S11300000C94A40B0C94360F0C94BF0B0C94BF0BE4
S11300100C94BF0B0C94BF0B0C94BF0B0C94550F9A
S11300200C94BF0B0C94BF0B0C94BF0B0C940E0FD1
S11300300C94BF0B0C94BF0B0C94BF0B0C94BF0B14
S11300400C94BF0B0C94BF0B0C94BF0B0C94BF0B04
S11300500C94BF0B0C94BF0B0C94BF0B0C94BF0BF4
S11300600C94BF0B0C94BF0B202020383838202070
S11300702020202020383838202027593838383894
S1130080202020275938383838382020383838206C
S11300902027593838383850203838382020275904
S11300A03838502720203838382020383838202055
S11300B027593838383820202038383838385027ED
S11300C02020202020643838502020202020383858
S11300D0382020275938383838502020202020272D
S11300E059383838202020275938383838382020D3
S11300F027593838383838382038383820202027DD
S113010059383838382020203838383838502720A3
S113011020200020202038383820202020202020B3
S1130120383838205938622E202020202059383879
S1130130622038383820203838382059383862203E
S1130140202020203838382059383820203838509A
S11301502038383820203838382059386220202078
S11301602020202020202020583838202020202023
S113017020643838383838383838383820593838DE
S1130180622E20202020202020593838622E202062
S11301902059383862203838382020383838202020
S11301A03838382038383820205938622E2020201A
S11301B020202020202020583838202000202020F3
S11301C038383820205938502020383838203838EA
S11301D038383838383820383838202038383820FB
S11301E0203838382038383820202020202038384B
S11301F0382038383820203838382038383820200B
S113020038383820383838383838383820202759A2
S1130210383838622E20202020202020643838509E
S1130220202020383838203838382020202020203A
S1130230202020383838202020202038383820202A
S113024038383820202E6438383838383820383850
S11302503820203838383838383838202759383852
S113026038622E20202000202020383838205938A9
S113027038385020383838206438502020593862B3
S11302802064383820203838382020383838206422
S1130290383850202020202038383820643838203E
S11302A020383862203838382020383862206438C2
S11302B0502020593862202038384B20202020201C
S11302C0202020202020206438385020203838383E
S11302D0206438385020202020202020203838382E
S11302E0202020202038383820203838382020207A
S11302F020202020383862203838382020643850B4
S11303002020593862202038384B202020202020FB
S11303102020202000202020383838593838383818
S1130320385038383820202E643838622E20202067
S11303302E643838383838202038383820202E6455
S113034038383838622038383820202E64383862FB
S11303502E20203838383838622E2020202E643859
S113036038622E2020202E6438383838622020202D
S1130370202020202020643838502038383820208D
S11303802E643838383862203838383838383838B5
S11303903820203838382020383838202020383881
S11303A03838622E20203838382020202E643838FF
S11303B0622E2020202E6438383838622020002015
S11303C020203838383838622E64383838383820A5
S11303D020202020202020202020202020203838E9
S11303E038202020202020202020202020202020F1
S11303F020202020202020202020202020202020F9
S113040020202020202020202020202020202020E8
S113041020202020202020202020202020202020D8
S113042020643838503838382020202020202020DC
S11304302020202020383838202020202020202070
S113044020202020202020202020202020202020A8
S11304503838382020202020202020202020002070
S11304602020383838386220202064383838382042
S11304702020202020202020202020202020383848
S113048038202059385020202020202020202020CF
S113049059385020202020202020202020202020D7
S11304A02020202020202020202020202020202048
S11304B02020202020202020202020202020202038
S11304C0202064383838383820202020202020206C
S11304D020202020203838382020202020202020D0
S11304E02020202020202020202020202020202008
S11304F038383820202020202020002020203838A0
S11305003862202020202064383838202020202001
S1130510202020202020202020203838382020644B
S113052038622020202020202020202064386220CF
S113053020202020202020202020202020202020B7
S113054020202020202020202020202020202020A7
S11305502020202020202020202020202020206453
S11305603838383820202020202020202020202027
S1130570203838382020202020202020202020202F
S1130580202020202020202020202020383838201F
S11305902020002020203E3E417072657465202793
S11305A03127206E756576616D656E7465207061A6
S11305B072612061637475616C697A6172206C6127
S11305C0206D65646963696F6E003E3E203420448B
S11305D061746F73204578747261732064656C2054
S11305E050726F796563746F003E3E203320436F11
S11305F06E666967757261722056656E74616E61AC
S1130600003E3E203220436F6E66696775726172E8
S11306102054656D706572617475726120646573D0
S1130620656164612028536574506F696E74290094
S11306303E3E203120566572204D65646963696FC2
S11306406E6573207920636F6E6669677572616386
S1130650696F6E6573002020202020202020202038
S11306602020202020202020202020202020333261
S11306700020202020202020202020202020202096
S11306802020202020202020202039392020313013
S113069030303030303030383437002020202020C3
S11306A02020202020202020202020202020203531
S11306B03030372033303031202034303030303057
S11306C030303030303035202020202020202020B1
S11306D0202020202020202020203E3E2053656C16
S11306E0656363696F6E6520616C67756E61206414
S11306F065206C617320616E746572696F726573D5
S1130700206F7063696F6E657300202020202020A5
S1130710202020202020202020202031393030307B
S11307203034202036303035202020202020202056
S11307303239303030303038312020202020202011
S11307402020202020202020203E3E2034204461F0
S1130750746F73204578747261732064656C2050E3
S1130760726F796563746F00202020202020202080
S113077020202020202020373030303030352020F9
S1130780202031303030382020202020202020200C
S113079020203530303030303120202020202020DF
S11307A0202020202020203E3E203320436F6E66F0
S11307B06967757261722056656E74616E6100209E
S11307C020202020202020202020202020353030F0
S11307D0303033202020202020203530303030337A
S11307E020202020202020202020203330303030B2
S11307F034202020202020202020202020203E3EA5
S1130800203220436F6E6669677572617220546589
S11308106D7065726174757261206465736561647D
S1130820612028536574506F696E7429002020205C
S1130830202020202020202020203030303035205F
S11308402020202020202020203830303030352037
S1130850202020202020202020202035303030303F
S11308602020202020202020202020203E3E203137
S113087020566572204D65646963696F6E657320E7
S11308807920636F6E66696775726163696F6E65FF
S11308907300202020202020202020202020303001
S11308A030303720202020202020202020203230EB
S11308B030303030382020202020202020202020DC
S11308C02020303030300020202020202020202004
S11308D020203930303020202020202020202020CB
S11308E0202020203630303030303033202020207B
S11308F020202020202020203030303920202020AB
S1130900202020202020434F4E45435441444F2073
S113091041204C41205245442054524946415349B8
S113092043412E2020200020202020202020202091
S1130930203330303032202020202020202020205E
S1130940202020203130303030303030342020200E
S1130950202020202020202033303030332020203D
S11309602020202020205155452045532052454722
S1130970554C414441204D454449414E5445205530
S11309804E20434F4E54524F4C2044452050574D17
S11309903B20200020202020202020202020383030
S11309A0303020202020203430303030303030308F
S11309B0303030303030303030303037202020206C
S11309C020202020202038303030202020202020DB
S11309D0202020454C204147554120455320434188
S11309E04C454E54414441204D454449414E5445A3
S11309F020554E4120524553495354454E43494195
S1130A0000202020202020202020203030303520BD
S1130A102020202020393030303030303030303019
S1130A20303030303030303030332020202020201F
S1130A302020203530303037202020202020202056
S1130A40524547554C4152204C412054454D504548
S1130A5052415455524120444520554E2054414E54
S1130A6051554520444520414755412E2000202022
S1130A70202020202020202030303033202020202F
S1130A80202020353030303030303030303030308D
S1130A9030303030303030362020202020202020CC
S1130AA033303030312020202020202020454C209D
S1130AB05349475549454E54452054524142414AB1
S1130AC04F205449454E4520504F52204F424A45ED
S1130AD0544F20454C00202020202020202020207E
S1130AE0303030322020202020202020313030307F
S1130AF030303030303030303030303030303030F2
S1130B003031202020202020333030303700202086
S1130B10202020202020202030303036202020208B
S1130B202020202020203930303030303030303018
S1130B3030303030303030303030332020202020FE
S1130B403430303000202020202020202020203667
S1130B50303030202020202020202020202032303F
S1130B603030303030303031202020202020202000
S1130B702020202020202030303039202020202028
S1130B80202020202020202020202020203E3E4CF9
S1130B904943204A554C49414E204D494E41544504
S1130BA04C20002020202020202020202020303015
S1130BB030392020202020202020202020373030D1
S1130BC030303030303520202020202020202020BC
S1130BD020202020363030303720202020202020B4
S1130BE020202020202020202020203E3E494E4747
S1130BF020504154524943494F2042454C4C494EA0
S1130C004745524920002020202020202020202059
S1130C102033303030352020202020202020202078
S1130C202020363030303030303720202020202033
S1130C302020202020203530303032202020202059
S1130C40202020202050524F4645534F5245533ABE
S1130C5020202020200020202020202020202020B0
S1130C602020353030303620202020202020202025
S1130C7020202032303030303036202020202020F8
S1130C802020202020343030303420202020202008
S1130C902020202020202020202020202020203E32
S1130CA03E464142524943494F204441564944201B
S1130CB047414C4C4F200020202020202020202081
S1130CC020202020323030303031202020202020BD
S1130CD020202020202038303030303320202020A5
S1130CE0202020203130303030352020202020209A
S1130CF0202020202020414C554D4E4F3A202020CA
S1130D0020200020202020202020202020202020FF
S1130D102037303030303031202020202020202057
S1130D202020203430303039202020202020313839
S1130D30303030303120202020202020202020205E
S1130D4020204349434C4F204C45435449564F3A85
S1130D50203E3E323032352020202020002020202A
S1130D60202020202020202020202020203230304D
S1130D7030303034372020202020202020203330F1
S1130D80303032202037353030303030322020209F
S1130D9020202020202020202020202043415445B2
S1130DA04452413A203E3E454C454354524F4E49ED
S1130DB0434120444520504F54454E43494120204F
S1130DC0202020002020202020202020202020203F
S1130DD02020202020203330303030303030343365
S1130DE0313720202020373830303720353030302C
S1130DF030330020202020202020202020202020EC
S1130E002020202020202020333930303030303052
S1130E10303030303220203430342020323320201F
S1130E2020202020202020202020202020202020BE
S1130E3020202020202020202020202020203E3E72
S1130E4043414C454E5441444F5220444520414770
S1130E505541202000202020202020202020202058
S1130E60202020202020202020202020202020336B
S1130E70343830303030303520203339332020209E
S1130E80202020202020202020202020202020205E
S1130E902020202054524142414A4F205052414385
S1130EA05449434F2046494E414C20494E544547EE
S1130EB05241444F523A200020202020202020205C
S1130EC0202020202020202020202020202020201E
S1130ED020202020202020202020202020202037F7
S1130EE0200020202020202020202020202020201E
S1130EF020202020202020202020202020202020EE
S1130F0020206F383838626F6F64385027202020D3
S1130F106F3838386F6F6F6F6F6F64382020202000
S1130F20202020202020206F38386F2020202020EF
S1130F306F383838386F2020605938626F6F6438E2
S1130F4050202020202020202759626F6450272021
S1130F502020206F38386F20202020206F38383828
S1130F60386F002020202020202020202020202036
S1130F70202020202020202020202020202020206D
S1130F80202020203838382020202020643838279A
S1130F902020383838202020202020206F202020B6
S1130FA02020202020202020202E38272020202010
S1130FB020603838382E20206038382E2020202019
S1130FC020383820202020202038202020202020D5
S1130FD038272020202E3827202020202060383851
S1130FE0382E0020202020202020202020202020F7
S1130FF020202020202020202020202020202020ED
S1131000202020203838382020202020203838384C
S11310102020383838202020202020202020202084
S1131020202020202020202020202E38386F6F6F91
S1131030383838382E202020383838202020206FA7
S11310406F6F6F6F6F2020203838202020202020E1
S11310502038202020202E38386F6F6F38383838E9
S11310602E0020202020202020202020202020208E
S1131070202020202020202020202020202020206C
S113108020202038383820202020202038383820CC
S1131090203838386F6F6F6F3820202020202020B0
S11310A0202020202020202020202E3820202038FE
S11310B038382E20202020383838202020202020A6
S11310C020202020202020383820202020202020EC
S11310D03820202020202E382020203838382E0098
S11310E020202020202020202020202020202020FC
S11310F020202020202020202020202020202020EC
S11311002038383820202020202038383820203833
S1131110383820202020202020202020202020209B
S11311202020202020202020202E38203838382E3F
S11311302020202020383838202020202020202063
S11311402020202020383820202020202020382053
S113115020202020202E38203838382E002020202F
S1131160202020202020202020202020202020207B
S1131170202020202020202020202020202038383B
S11311803820202020205938622020603838382721
S113119020202020206038202020202020202020F3
S11311A0202020202020202E3838382E20202020D7
S11311B020202064385027202060593862202020C5
S11311C020383838202020202020203820202020BB
S11311D02020202E3838382E0020202020202020C7
S11311E020202020202020202020202020202020FB
S11311F02020202020202020206F6F6F6F6F6F6FC2
S11312006F6F6F2E2020206F6F6F6F6F6F6F6F6F18
S11312106F6F6F20202020202020202020202020DD
S1131220202020202E6F2E2020202020202020204F
S11312302E6F6F6F6F6F6F2E202020206F6F6F6F78
S11312406F20202020206F6F6F202020202020205E
S11312502E6F2E00202020202020202020605938AE
S1131260626F6F6438502020206F38386F20202040
S113127020206F383838386F206F3838386F6F6FE8
S11312806F6F6F6438206F3838386F6F6F6F6F6FA0
S1131290643820206F386F202020202020202060F8
S11312A038202020202020206F3838386F2020203C
S11312B020206F38386F20202020206F38383838AD
S11312C06F206F383838626F6F64385027202020C1
S11312D020605938626F6F6438502720206F383887
S11312E0386F20206F3838386F20002020202020CD
S11312F020202060383862202020206F6F6F20204B
S1131300202E38272020202020603838382E202016
S113131020383838202020202020206F2020383802
S113132038202020202020206F202020382020203A
S11313302020202060383838202020202020202021
S1131340383838202020202020202E382720202024
S11313502020603838382E202020383838202020AB
S11313602020643838272060383862202020206408
S11313703838272020383838202020383862002098
S11313802020202020202038383820202020202011
S11313902020202020202E38386F6F6F38383838BE
S11313A02E202020203838382020202020202020E3
S11313B020203838382020202020202020202020E1
S11313C0382020202020603838622E382020202029
S11313D02020202038383820202020202020202EB3
S11313E038386F6F6F383838382E2020202038383E
S11313F03820202020202038383820383838202041
S11314002020202038383820203838386038386296
S11314102E00202020202020202038383820202092
S1131420202020202020202020202E38202020387A
S113143038382E2020202020383838202020202022
S113144020202020203838386F6F6F6F38202020FC
S113145020202038202020603838622E2020382098
S11314602020202020202038383820202020202030
S11314702020202E382020203838382E20202020EC
S11314802038383820202020202038383820383898
S11314903820202020202038383820203838386F51
S11314A06F6F38385000202020202020202038382A
S11314B03820202020202020202020202020202E02
S11314C038203838382E2020202020203838382062
S11314D020202020202020202038383820202020C0
S11314E0202020202020203820603838622E202020
S11314F02020382020202020202020383838202088
S113150020202020202020202E38203838382E205B
S1131510202020202038383820202020202038384F
S1131520382038383820202020202038383820200F
S11315303838382020202064383827002020202004
S11315402020202020643850272020605938622031
S11315502020202020202E3838382E202020202023
S11315602060383838272020202020202020603890
S11315703838272020202020603820206038383850
S1131580622E202020202060382720203827202089
S11315902038383820202027382020202020202ED2
S11315A03838382E20202020202060383838272052
S11315B020206059386220202064385020202020C8
S11315C059386220202038383820202020593838D3
S11315D000202020202020202020202E6F6F6F6FDD
S11315E06F6F2E2020202020202020202E6F2E20E0
S11315F02020202020206F6F6F6F6F20202020205C
S11316002020206F6F6F6F6F6F6F6F6F6F6F6F2022
S1131610206F6F6F6F6F2020202020206F6F6F204E
S1131620206F6F6F6F6F6F6F6F6F6F6F6F6F2020B3
S113163020202020202E6F2E202020202020206FEC
S11316406F6F6F6F6F6F6F6F6F2E20202020202EB3
S11316506F6F6F6F6F6F2E202020206F6F6F6F6F13
S11316606F6F6F002A43002020203E3E4C6120769D
S1131670656E74616E61206573746120736974753D
S113168061646120656E3A202B2F2D20002A4300CF
S11316902020203E3E456C20736574706F696E7423
S11316A02065737461207369747561646F20656E5D
S11316B03A20002520646520737520706F74656E70
S11316C0636961206E6F6D696E616C002020203E3D
S11316D03E456C2063616C656E7461646F72206456
S11316E0652061677561206573746120616C2000F9
S11316F02A43002020203E3E54656D70657261745B
S11317007572612061637475616C2064656C20611D
S11317106775613A20003E3E2053656C65636369DA
S11317206F6E6520616C67756E61206465206C6105
S11317307320616E746572696F726573206F706374
S1131740696F6E657320000011241FBECFEFD8E0CF
S1131750DEBFCDBF11E0A0E0B1E0E0E9F5E202C0F8
S113176005900D92A434B107D9F721E0A4E4B1E0C7
S113177001C01D92AA35B207E1F7B4D307C70C9490
S113178000001092C50080E18093C40088E180933A
S1131790C10086E08093C20008959091C00095FF37
S11317A0FCCF8093C6000895CF93DF93EC01899119
S11317B0882311F0F2DFFBCFDF91CF9108958DE004
S11317C0ECDF8AE0EACF8091C00087FFFCCF8091F4
S11317D0C6008F3509F480E00895CF93DF93FC01B0
S11317E08491EF012196882319F0D7DFFE01F8CF09
S11317F0DF91CF91089588E091E0D6DF8DE091E00C
S1131800D3CFDDDFF8DF81ED95E1E7DFD8DF8CE3CF
S113181095E1E3DFD4DF86EA94E1DFDFD0DF82E124
S113182094E1DBDFCCDF8FE793E1D7DFC8DF8BEE1A
S113183092E1D3DFC4DF84E592E1CFDFC0DFBFDF15
S113184089ED91E1CADFBBDF8DE591E1C6DFB7DF4A
S113185080EE90E1C2DFB3DF82E690E1BEDFAFDF6E
S113186083EE9FE0BADFABDF83E69FE0B6DFA7DF5E
S113187082EE9EE0B2DFA3DFA2DF88EB9EE0ADDF65
S11318809EDF85E59EE0A9DF9ADF83EF9DE0A5DF7B
S113189096DF84EC9DE0A1DF92DF8DE59DE09DDF86
S11318A08EDF83E09DE099DF8ADF87EB9CE095DFA4
S11318B086DF86E59CE091DF82DF86E09CE08DDFB9
S11318C07EDF83EA9BE089DF7ADF85E49BE085DFC6
S11318D076DF8EE09BE081DF72DF86ED9AE07DDFCC
S11318E06EDF8EE69AE079DF6ADF81E09AE075DFE9
S11318F066DF84E999E071DF62DF87E299E06DDFFA
S11319005EDF87EC98E069DF5ADF82E998E065DF03
S113191056DF8DE298E061DF52DF8FEB97E05DDF09
S11319204EDF88E697E059DF4ADF8AE097E055DF2B
S113193046DF8BE996E051DF42DF81E796E04DDF39
S11319403EDF86E596E049DF3ACF39DF54DF80E3B6
S113195096E043DF34DF81E096E03FDF30DF89EE5D
S113196095E03BDF2CDF8AEC95E037DF28DF86E16A
S113197097E133CF8F929F92AF92BF92CF92DF9233
S1131980EF92FF920F931F93CF93DF9300D000D079
S1131990CDB7DEB7D82EC92E59014B835C8369833A
S11319A07A8329DF8BEF94E018DF09DF8FE594E079
S11319B014DF05DF8FEB93E010DF01DF85E193E0B7
S11319C00CDFFDDE87E692E008DFF9DE8DEB91E0C7
S11319D004DFF5DE83E191E000DFF1DE88E690E0EC
S11319E0FCDEEDDEECDE83EF96E1F7DECF92DF92F4
S11319F091E1C92E91E0D92EDF92CF9220E5822E7B
S1131A0021E0922E9F928F9202D3C401CDDE84E115
S1131A1091E0CADE7A817F9369816F93DF92CF92DE
S1131A209F928F92F4D2C401BFDE80EF96E1D5DE9F
S1131A30C6DE80E996E1D1DE5C815F934B814F93F2
S1131A40DF92CF929F928F92E2D2C401ADDE0FB6A5
S1131A50F894DEBF0FBECDBF1A141B0414F584E145
S1131A6091E0A2DEBF92AF92DF92CF929F928F92CB
S1131A70CED20F900F900F900F900F900F90C50142
S1131A800B978935910518F487E191E006C09AE037
S1131A90A916B1041CF486E191E086DE80E591E0AC
S1131AA083DE8DE896E199DE8ADE87E696E195DEAF
S1131AB01F930F9301E111E01F930F9380E5C82E4C
S1131AC081E0D82EDF92CF92A2D2C6016DDE84E6E9
S1131AD096E183DE74DE8CEC96E17FDEFF92EF927A
S1131AE01F930F93DF92CF9292D2C6015DDE83EBF8
S1131AF096E173DE64DE83E995E06FDE60DE0FB6A7
S1131B00F894DEBF0FBECDBF89E191E00F900F9036
S1131B100F900F90DF91CF911F910F91FF90EF9055
S1131B20DF90CF90BF90AF909F908F903DCE84B5C3
S1131B30836884BD85B5826085BD17BC569A0895B7
S1131B40E1E8F0E080818A60808385E09DE0909305
S1131B50890080938800EFE6F0E0808182608083D2
S1131B600895E9E6F0E0808181608083E89A089531
S1131B70ECE7F0E0808180648083EAE7F0E0808134
S1131B80866E80830895A0917800B091790020EC4E
S1131B9034ED41E050E01DD22FEF33E040E050E05F
S1131BA0E1D1CA01B9010895CF92DF92EF92FF9279
S1131BB0EADF60934A0170934B0180934C01909348
S1131BC04D0140914A0150914B0160914C0170913B
S1131BD04D018091040190910501A0910601B091FD
S1131BE00701C0900001D0900101E0900201F09043
S1131BF003018C199D09AE09BF09481759076A07E3
S1131C007B071CF48FEF87BD4AC040914A01509175
S1131C104B0160914C0170914D01809104019091B0
S1131C200501A0910601B0910701C0900001D09078
S1131C300101E0900201F09003018C0D9D1DAE1D89
S1131C40BF1D84179507A607B70714F417BC27C050
S1131C502091040130910501409106015091070142
S1131C6080914A0190914B01A0914C01B0914D019A
S1131C70C0900001D0900101E0900201F0900301B6
S1131C80281B390B4A0B5B0BAFEFB0E0A2D1CC0C95
S1131C90DD1CEE1CFF1CA701960142D127BD87B5B0
S1131CA024E6829FC00111246FEF70E026D1709367
S1131CB0490160934801FF90EF90DF90CF90089521
S1131CC02F923F924F925F926F927F928F929F9248
S1131CD0AF92BF92CF92DF92EF92FF920F931F9336
S1131CE0CF93DF93CDB7DEB728970FB6F894DEBF56
S1131CF00FBECDBF60914A0170914B0180914C01A0
S1131D0090914D0128EE33E040E050E02BD12901C1
S1131D103A01C0904A01D0904B01E0904C01F09000
S1131D204D01A8E1BCEF3AD1C60ED71EE81EF91E3C
S1131D30160184E6C816D10414F4212C312C6091C8
S1131D40040170910501809106019091070138EE1C
S1131D50C32E33E0D32EE12CF12CA701960102D13E
S1131D6029833A834B835C8380900401909005011E
S1131D70A0900601B09007016091000170910101EB
S1131D808091020190910301009148011091490151
S1131D90A7019601E7D02D833E834F83588729817D
S1131DA03A81A8E1BCEFFAD0860E971EA81EB91E90
S1131DB078010D811E81940149815A81B101C201CA
S1131DC0D9DD28960FB6F894DEBF0FBECDBFDF91E4
S1131DD0CF911F910F91FF90EF90DF90CF90BF9024
S1131DE0AF909F908F907F906F905F904F903F90B7
S1131DF02F90089565DF10924701109246011092CA
S1131E004501109244010895DEDC883529F08837B5
S1131E1019F0813311F4EECF98CD08951F920F92EB
S1131E200FB60F9211242F933F934F935F936F93A9
S1131E307F938F939F93AF93BF93EF93FF9317BCBD
S1131E4010924F0110924E01AFDEFF91EF91BF91BE
S1131E50AF919F918F917F916F915F914F913F913E
S1131E602F910F900FBE0F901F9018951F920F92F5
S1131E700FB60F9211248F939F9380914E019091EE
S1131E804F01C2975CF48FEF87BD80914E01909112
S1131E904F01019690934F0180934E019F918F9132
S1131EA00F900FBE0F901F9018951F920F920FB6B0
S1131EB00F9211248F939F9381E090E090934701B8
S1131EC0809346018091440190914501019690933D
S1131ED04501809344019F918F910F900FBE0F9005
S1131EE01F901895F8944DDC8CDC21DE29DE39DE58
S1131EF03FDE789459DE88DFFDCF97FB072E16F47A
S1131F00009406D077FD08D06ED007FC05D03EF4CF
S1131F10909581959F4F0895709561957F4F089591
S1131F20A1E21A2EAA1BBB1BFD010DC0AA1FBB1FD9
S1131F30EE1FFF1FA217B307E407F50720F0A21B4B
S1131F40B30BE40BF50B661F771F881F991F1A94B8
S1131F5069F760957095809590959B01AC01BD01E2
S1131F60CF010895052E97FB16F400940FD057FD6A
S1131F7005D0D6DF07FC02D046F408C05095409542
S1131F80309521953F4F4F4F5F4F08959095809521
S1131F90709561957F4F8F4F9F4F089505D03323E0
S1131FA012F48A1B9B0B10C0A29FB001B39FC00107
S1131FB0A39F700D811D1124911DB29F700D811D71
S1131FC01124911D0895F0DFB7FF0895821B930B30
S1131FD00895EADFA59F900DB49F900DA49F800DF6
S1131FE0911D11240895AA1BBB1B51E107C0AA1F10
S1131FF0BB1FA617B70710F0A61BB70B881F991FA6
S11320005A95A9F780959095BC01CD010895AEE04D
S1132010B0E0ECE0F0E191C20D891E8986E08C838A
S11320201A8309838FEF9FE79E838D83AE01475EFA
S11320305F4F6F89788DCE01019608D0EF81F885C6
S1132040E00FF11F10822E96E4E093C2ACE0B0E002
S1132050EBE2F0E164C27C016B018A01FC011782AE
S11320601682838181FFB0C1CE0101964C01F70134
S11320709381F60193FD859193FF81916F018823EC
S113208009F49EC1853239F493FD859193FF8191C2
S11320906F01853221F4B70190E0B1D1E8CF512C22
S11320A0312C20E02032A0F48B3269F030F48032FD
S11320B059F0833269F420612CC08D3239F08033B9
S11320C039F4216026C02260246023C0286021C026
S11320D027FD27C030ED380F3A3078F426FF06C0CC
S11320E0FAE05F9E300D1124532E13C08AE0389E0F
S11320F0300D1124332E20620CC08E3221F426FDC3
S11321005FC1206406C08C3611F4206802C0883692
S113211041F4F60193FD859193FF81916F01811143
S1132120C1CF982F9F7D9554933028F40C5F1F4F97
S1132130FFE3F9830DC0833631F0833771F08335C3
S113214009F057C021C0F801808189830E5F1F4FB9
S113215044244394512C540114C03801F2E06F0E0E
S1132160711CF801A080B18026FF03C0652D70E0CA
S113217002C06FEF7FEFC5012C8736D12C0183019C
S11321802C852F77222E16C03801F2E06F0E711CB9
S1132190F801A080B18026FF03C0652D70E002C065
S11321A06FEF7FEFC5012C8714D12C012C8520689B
S11321B0222E830123FC19C0832D90E04816590672
S11321C0A0F4B70180E290E01AD13A94F5CFF5017A
S11321D027FC859127FE81915F01B70190E00FD123
S11321E031103A94F1E04F1A51084114510479F72F
S11321F0DEC0843611F0893631F5F80127FF07C0B7
S113220060817181828193810C5F1F4F08C060815E
S11322107181882777FD8095982F0E5F1F4F2F7649
S1132220B22E97FF09C090958095709561957F4F68
S11322308F4F9F4F2068B22E2AE030E0A40111D1C5
S1132240A82EA81843C0853729F42F7EB22E2AE081
S113225030E025C0F22FF97FBF2E8F36C1F018F47D
S1132260883579F0ADC0803719F0883721F0A8C0DF
S11322702F2F2061B22EB4FE0DC08B2D8460B82E9A
S113228009C024FF0AC09F2F9660B92E06C028E01B
S113229030E005C020E130E002C020E132E0F80186
S11322A0B7FE07C060817181828193810C5F1F4FEB
S11322B006C06081718180E090E00E5F1F4FA40131
S11322C0D0D0A82EA818FB2DFF77BF2EB6FE0BC0CA
S11322D02B2D2E7FA51450F4B4FE0AC0B2FC08C006
S11322E02B2D2E7E05C07A2C2B2D03C07A2C01C0F9
S11322F0752C24FF0DC0FE01EA0DF11D8081803391
S113230011F4297E09C022FF06C07394739404C09B
S1132310822F867809F0739423FD12C020FF06C033
S11323205A2C731418F4530C5718732C731460F448
S1132330B70180E290E02C8762D073942C85F6CFAD
S1132340731410F4371801C0312C24FF11C0B701E5
S113235080E390E02C8753D02C8522FF16C021FF08
S113236003C088E590E002C088E790E0B7010CC0A4
S1132370822F867851F021FD02C080E201C08BE2F9
S113238027FD8DE2B70190E03AD0A51430F4B701EF
S113239080E390E034D05A94F8CFAA94F401EA0D83
S11323A0F11D8081B70190E02AD0A110F6CF33202F
S11323B009F45DCEB70180E290E021D03A94F7CFE2
S11323C0F7018681978102C08FEF9FEF2C96E2E19F
S11323D0C2C0FC010590615070400110D8F780958F
S11323E090958E0F9F1F0895FC01615070400190DD
S11323F00110D8F7809590958E0F9F1F08950F9325
S11324001F93CF93DF93182F092FEB018B8181FD4D
S113241003C08FEF9FEF20C082FF10C04E815F8109
S11324202C813D81421753077CF4E881F9819F0197
S11324302F5F3F4F39832883108306C0E885F985D1
S1132440812F0995892B29F72E813F812F5F3F4FDB
S11324503F832E83812F902FDF91CF911F910F9176
S11324600895FA01AA27283051F1203181F1E89426
S11324706F936E7F6E5F7F4F8F4F9F4FAF4FB1E073
S11324803ED0B4E03CD0670F781F891F9A1FA11D6E
S1132490680F791F8A1F911DA11D6A0F711D811D6F
S11324A0911DA11D20D009F468943F912AE0269F34
S11324B011243019305D3193DEF6CF010895462F93
S11324C04770405D4193B3E00FD0C9F7F6CF462F74
S11324D04F70405D4A3318F0495D31FD40524193DD
S11324E002D0A9F7EACFB4E0A6959795879577959A
S11324F06795BA95C9F700976105710508959B0121
S1132500AC010A2E06945795479537952795BA95A9
S1132510C9F7620F731F841F951FA01D08952F9282
S11325203F924F925F926F927F928F929F92AF925F
S1132530BF92CF92DF92EF92FF920F931F93CF93AC
S1132540DF93CDB7DEB7CA1BDB0B0FB6F894DEBF43
S11325500FBECDBF09942A88398848885F846E8469
S11325607D848C849B84AA84B984C884DF80EE80B3
S1132570FD800C811B81AA81B981CE0FD11D0FB6BC
S1132580F894DEBF0FBECDBFED010895F894FFCFE0
S1132590E8030000F82401001B5B324A001B5B487F
S11325A0002564002C003030002020203E3E417085
S11325B0726574652058207061726120766F6C7644
S11325C0657220616C206D656E7520696E69636942
S10725D0616C000036
S9030000FC
